{
  "_format": "hh-sol-artifact-1",
  "contractName": "NFTCertificate",
  "sourceName": "contracts/NFTCertificate.sol",
  "abi": [
    {
      "inputs": [],
      "stateMutability": "nonpayable",
      "type": "constructor"
    },
    {
      "inputs": [
        {
          "internalType": "address",
          "name": "sender",
          "type": "address"
        },
        {
          "internalType": "uint256",
          "name": "tokenId",
          "type": "uint256"
        },
        {
          "internalType": "address",
          "name": "owner",
          "type": "address"
        }
      ],
      "name": "ERC721IncorrectOwner",
      "type": "error"
    },
    {
      "inputs": [
        {
          "internalType": "address",
          "name": "operator",
          "type": "address"
        },
        {
          "internalType": "uint256",
          "name": "tokenId",
          "type": "uint256"
        }
      ],
      "name": "ERC721InsufficientApproval",
      "type": "error"
    },
    {
      "inputs": [
        {
          "internalType": "address",
          "name": "approver",
          "type": "address"
        }
      ],
      "name": "ERC721InvalidApprover",
      "type": "error"
    },
    {
      "inputs": [
        {
          "internalType": "address",
          "name": "operator",
          "type": "address"
        }
      ],
      "name": "ERC721InvalidOperator",
      "type": "error"
    },
    {
      "inputs": [
        {
          "internalType": "address",
          "name": "owner",
          "type": "address"
        }
      ],
      "name": "ERC721InvalidOwner",
      "type": "error"
    },
    {
      "inputs": [
        {
          "internalType": "address",
          "name": "receiver",
          "type": "address"
        }
      ],
      "name": "ERC721InvalidReceiver",
      "type": "error"
    },
    {
      "inputs": [
        {
          "internalType": "address",
          "name": "sender",
          "type": "address"
        }
      ],
      "name": "ERC721InvalidSender",
      "type": "error"
    },
    {
      "inputs": [
        {
          "internalType": "uint256",
          "name": "tokenId",
          "type": "uint256"
        }
      ],
      "name": "ERC721NonexistentToken",
      "type": "error"
    },
    {
      "inputs": [
        {
          "internalType": "address",
          "name": "owner",
          "type": "address"
        }
      ],
      "name": "OwnableInvalidOwner",
      "type": "error"
    },
    {
      "inputs": [
        {
          "internalType": "address",
          "name": "account",
          "type": "address"
        }
      ],
      "name": "OwnableUnauthorizedAccount",
      "type": "error"
    },
    {
      "anonymous": false,
      "inputs": [
        {
          "indexed": true,
          "internalType": "address",
          "name": "owner",
          "type": "address"
        },
        {
          "indexed": true,
          "internalType": "address",
          "name": "approved",
          "type": "address"
        },
        {
          "indexed": true,
          "internalType": "uint256",
          "name": "tokenId",
          "type": "uint256"
        }
      ],
      "name": "Approval",
      "type": "event"
    },
    {
      "anonymous": false,
      "inputs": [
        {
          "indexed": true,
          "internalType": "address",
          "name": "owner",
          "type": "address"
        },
        {
          "indexed": true,
          "internalType": "address",
          "name": "operator",
          "type": "address"
        },
        {
          "indexed": false,
          "internalType": "bool",
          "name": "approved",
          "type": "bool"
        }
      ],
      "name": "ApprovalForAll",
      "type": "event"
    },
    {
      "anonymous": false,
      "inputs": [
        {
          "indexed": false,
          "internalType": "uint256",
          "name": "_fromTokenId",
          "type": "uint256"
        },
        {
          "indexed": false,
          "internalType": "uint256",
          "name": "_toTokenId",
          "type": "uint256"
        }
      ],
      "name": "BatchMetadataUpdate",
      "type": "event"
    },
    {
      "anonymous": false,
      "inputs": [
        {
          "indexed": true,
          "internalType": "address",
          "name": "owner",
          "type": "address"
        },
        {
          "indexed": true,
          "internalType": "uint256",
          "name": "tokenId",
          "type": "uint256"
        },
        {
          "indexed": false,
          "internalType": "string",
          "name": "recipientName",
          "type": "string"
        },
        {
          "indexed": false,
          "internalType": "uint256",
          "name": "timestamp",
          "type": "uint256"
        }
      ],
      "name": "CertificateMinted",
      "type": "event"
    },
    {
      "anonymous": false,
      "inputs": [
        {
          "indexed": false,
          "internalType": "uint256",
          "name": "_tokenId",
          "type": "uint256"
        }
      ],
      "name": "MetadataUpdate",
      "type": "event"
    },
    {
      "anonymous": false,
      "inputs": [
        {
          "indexed": true,
          "internalType": "address",
          "name": "previousOwner",
          "type": "address"
        },
        {
          "indexed": true,
          "internalType": "address",
          "name": "newOwner",
          "type": "address"
        }
      ],
      "name": "OwnershipTransferred",
      "type": "event"
    },
    {
      "anonymous": false,
      "inputs": [
        {
          "indexed": true,
          "internalType": "address",
          "name": "from",
          "type": "address"
        },
        {
          "indexed": true,
          "internalType": "address",
          "name": "to",
          "type": "address"
        },
        {
          "indexed": true,
          "internalType": "uint256",
          "name": "tokenId",
          "type": "uint256"
        }
      ],
      "name": "Transfer",
      "type": "event"
    },
    {
      "inputs": [
        {
          "internalType": "address",
          "name": "to",
          "type": "address"
        },
        {
          "internalType": "uint256",
          "name": "tokenId",
          "type": "uint256"
        }
      ],
      "name": "approve",
      "outputs": [],
      "stateMutability": "nonpayable",
      "type": "function"
    },
    {
      "inputs": [
        {
          "internalType": "address",
          "name": "owner",
          "type": "address"
        }
      ],
      "name": "balanceOf",
      "outputs": [
        {
          "internalType": "uint256",
          "name": "",
          "type": "uint256"
        }
      ],
      "stateMutability": "view",
      "type": "function"
    },
    {
      "inputs": [
        {
          "internalType": "uint256",
          "name": "tokenId",
          "type": "uint256"
        }
      ],
      "name": "getApproved",
      "outputs": [
        {
          "internalType": "address",
          "name": "",
          "type": "address"
        }
      ],
      "stateMutability": "view",
      "type": "function"
    },
    {
      "inputs": [
        {
          "internalType": "uint256",
          "name": "tokenId",
          "type": "uint256"
        }
      ],
      "name": "getCertificateInfo",
      "outputs": [
        {
          "internalType": "string",
          "name": "recipientName",
          "type": "string"
        },
        {
          "internalType": "uint256",
          "name": "timestamp",
          "type": "uint256"
        }
      ],
      "stateMutability": "view",
      "type": "function"
    },
    {
      "inputs": [
        {
          "internalType": "address",
          "name": "owner",
          "type": "address"
        },
        {
          "internalType": "address",
          "name": "operator",
          "type": "address"
        }
      ],
      "name": "isApprovedForAll",
      "outputs": [
        {
          "internalType": "bool",
          "name": "",
          "type": "bool"
        }
      ],
      "stateMutability": "view",
      "type": "function"
    },
    {
      "inputs": [
        {
          "internalType": "string",
          "name": "recipientName",
          "type": "string"
        }
      ],
      "name": "mintCertificate",
      "outputs": [
        {
          "internalType": "uint256",
          "name": "",
          "type": "uint256"
        }
      ],
      "stateMutability": "nonpayable",
      "type": "function"
    },
    {
      "inputs": [],
      "name": "name",
      "outputs": [
        {
          "internalType": "string",
          "name": "",
          "type": "string"
        }
      ],
      "stateMutability": "view",
      "type": "function"
    },
    {
      "inputs": [],
      "name": "owner",
      "outputs": [
        {
          "internalType": "address",
          "name": "",
          "type": "address"
        }
      ],
      "stateMutability": "view",
      "type": "function"
    },
    {
      "inputs": [
        {
          "internalType": "uint256",
          "name": "tokenId",
          "type": "uint256"
        }
      ],
      "name": "ownerOf",
      "outputs": [
        {
          "internalType": "address",
          "name": "",
          "type": "address"
        }
      ],
      "stateMutability": "view",
      "type": "function"
    },
    {
      "inputs": [],
      "name": "renounceOwnership",
      "outputs": [],
      "stateMutability": "nonpayable",
      "type": "function"
    },
    {
      "inputs": [
        {
          "internalType": "address",
          "name": "from",
          "type": "address"
        },
        {
          "internalType": "address",
          "name": "to",
          "type": "address"
        },
        {
          "internalType": "uint256",
          "name": "tokenId",
          "type": "uint256"
        }
      ],
      "name": "safeTransferFrom",
      "outputs": [],
      "stateMutability": "nonpayable",
      "type": "function"
    },
    {
      "inputs": [
        {
          "internalType": "address",
          "name": "from",
          "type": "address"
        },
        {
          "internalType": "address",
          "name": "to",
          "type": "address"
        },
        {
          "internalType": "uint256",
          "name": "tokenId",
          "type": "uint256"
        },
        {
          "internalType": "bytes",
          "name": "data",
          "type": "bytes"
        }
      ],
      "name": "safeTransferFrom",
      "outputs": [],
      "stateMutability": "nonpayable",
      "type": "function"
    },
    {
      "inputs": [
        {
          "internalType": "address",
          "name": "operator",
          "type": "address"
        },
        {
          "internalType": "bool",
          "name": "approved",
          "type": "bool"
        }
      ],
      "name": "setApprovalForAll",
      "outputs": [],
      "stateMutability": "nonpayable",
      "type": "function"
    },
    {
      "inputs": [
        {
          "internalType": "bytes4",
          "name": "interfaceId",
          "type": "bytes4"
        }
      ],
      "name": "supportsInterface",
      "outputs": [
        {
          "internalType": "bool",
          "name": "",
          "type": "bool"
        }
      ],
      "stateMutability": "view",
      "type": "function"
    },
    {
      "inputs": [],
      "name": "symbol",
      "outputs": [
        {
          "internalType": "string",
          "name": "",
          "type": "string"
        }
      ],
      "stateMutability": "view",
      "type": "function"
    },
    {
      "inputs": [
        {
          "internalType": "uint256",
          "name": "tokenId",
          "type": "uint256"
        }
      ],
      "name": "tokenURI",
      "outputs": [
        {
          "internalType": "string",
          "name": "",
          "type": "string"
        }
      ],
      "stateMutability": "view",
      "type": "function"
    },
    {
      "inputs": [
        {
          "internalType": "address",
          "name": "from",
          "type": "address"
        },
        {
          "internalType": "address",
          "name": "to",
          "type": "address"
        },
        {
          "internalType": "uint256",
          "name": "tokenId",
          "type": "uint256"
        }
      ],
      "name": "transferFrom",
      "outputs": [],
      "stateMutability": "nonpayable",
      "type": "function"
    },
    {
      "inputs": [
        {
          "internalType": "address",
          "name": "newOwner",
          "type": "address"
        }
      ],
      "name": "transferOwnership",
      "outputs": [],
      "stateMutability": "nonpayable",
      "type": "function"
    }
  ],
  "bytecode": "0x60806040523480156200001157600080fd5b50336040518060400160405280600f81526020017f4e465420436572746966696361746500000000000000000000000000000000008152506040518060400160405280600481526020017f4345525400000000000000000000000000000000000000000000000000000000815250816000908162000090919062000472565b508060019081620000a2919062000472565b505050600073ffffffffffffffffffffffffffffffffffffffff168173ffffffffffffffffffffffffffffffffffffffff16036200011a5760006040517f1e4fbdf70000000000000000000000000000000000000000000000000000000081526004016200011191906200059e565b60405180910390fd5b6200012b816200013260201b60201c565b50620005bb565b6000600760009054906101000a900473ffffffffffffffffffffffffffffffffffffffff16905081600760006101000a81548173ffffffffffffffffffffffffffffffffffffffff021916908373ffffffffffffffffffffffffffffffffffffffff1602179055508173ffffffffffffffffffffffffffffffffffffffff168173ffffffffffffffffffffffffffffffffffffffff167f8be0079c531659141344cd1fd0a4f28419497f9722a3daafe3b4186f6b6457e060405160405180910390a35050565b600081519050919050565b7f4e487b7100000000000000000000000000000000000000000000000000000000600052604160045260246000fd5b7f4e487b7100000000000000000000000000000000000000000000000000000000600052602260045260246000fd5b600060028204905060018216806200027a57607f821691505b60208210810362000290576200028f62000232565b5b50919050565b60008190508160005260206000209050919050565b60006020601f8301049050919050565b600082821b905092915050565b600060088302620002fa7fffffffffffffffffffffffffffffffffffffffffffffffffffffffffffffffff82620002bb565b620003068683620002bb565b95508019841693508086168417925050509392505050565b6000819050919050565b6000819050919050565b6000620003536200034d62000347846200031e565b62000328565b6200031e565b9050919050565b6000819050919050565b6200036f8362000332565b620003876200037e826200035a565b848454620002c8565b825550505050565b600090565b6200039e6200038f565b620003ab81848462000364565b505050565b5b81811015620003d357620003c760008262000394565b600181019050620003b1565b5050565b601f8211156200042257620003ec8162000296565b620003f784620002ab565b8101602085101562000407578190505b6200041f6200041685620002ab565b830182620003b0565b50505b505050565b600082821c905092915050565b6000620004476000198460080262000427565b1980831691505092915050565b600062000462838362000434565b9150826002028217905092915050565b6200047d82620001f8565b67ffffffffffffffff81111562000499576200049862000203565b5b620004a5825462000261565b620004b2828285620003d7565b600060209050601f831160018114620004ea5760008415620004d5578287015190505b620004e1858262000454565b86555062000551565b601f198416620004fa8662000296565b60005b828110156200052457848901518255600182019150602085019450602081019050620004fd565b8683101562000544578489015162000540601f89168262000434565b8355505b6001600288020188555050505b505050505050565b600073ffffffffffffffffffffffffffffffffffffffff82169050919050565b6000620005868262000559565b9050919050565b620005988162000579565b82525050565b6000602082019050620005b560008301846200058d565b92915050565b61341580620005cb6000396000f3fe608060405234801561001057600080fd5b50600436106101165760003560e01c80638da5cb5b116100a2578063c87b56dd11610071578063c87b56dd146102cb578063e3a88109146102fb578063e620f9e31461032b578063e985e9c51461035c578063f2fde38b1461038c57610116565b80638da5cb5b1461025757806395d89b4114610275578063a22cb46514610293578063b88d4fde146102af57610116565b806323b872dd116100e957806323b872dd146101b557806342842e0e146101d15780636352211e146101ed57806370a082311461021d578063715018a61461024d57610116565b806301ffc9a71461011b57806306fdde031461014b578063081812fc14610169578063095ea7b314610199575b600080fd5b610135600480360381019061013091906120a0565b6103a8565b60405161014291906120e8565b60405180910390f35b6101536103ba565b6040516101609190612193565b60405180910390f35b610183600480360381019061017e91906121eb565b61044c565b6040516101909190612259565b60405180910390f35b6101b360048036038101906101ae91906122a0565b610468565b005b6101cf60048036038101906101ca91906122e0565b61047e565b005b6101eb60048036038101906101e691906122e0565b610580565b005b610207600480360381019061020291906121eb565b6105a0565b6040516102149190612259565b60405180910390f35b61023760048036038101906102329190612333565b6105b2565b604051610244919061236f565b60405180910390f35b61025561066c565b005b61025f610680565b60405161026c9190612259565b60405180910390f35b61027d6106aa565b60405161028a9190612193565b60405180910390f35b6102ad60048036038101906102a891906123b6565b61073c565b005b6102c960048036038101906102c4919061252b565b610752565b005b6102e560048036038101906102e091906121eb565b610777565b6040516102f29190612193565b60405180910390f35b6103156004803603810190610310919061264f565b610789565b604051610322919061236f565b60405180910390f35b610345600480360381019061034091906121eb565b6108b0565b604051610353929190612698565b60405180910390f35b610376600480360381019061037191906126c8565b610a39565b60405161038391906120e8565b60405180910390f35b6103a660048036038101906103a19190612333565b610acd565b005b60006103b382610b53565b9050919050565b6060600080546103c990612737565b80601f01602080910402602001604051908101604052809291908181526020018280546103f590612737565b80156104425780601f1061041757610100808354040283529160200191610442565b820191906000526020600020905b81548152906001019060200180831161042557829003601f168201915b5050505050905090565b600061045782610bb4565b5061046182610c3c565b9050919050565b61047a8282610475610c79565b610c81565b5050565b600073ffffffffffffffffffffffffffffffffffffffff168273ffffffffffffffffffffffffffffffffffffffff16036104f05760006040517f64a0ae920000000000000000000000000000000000000000000000000000000081526004016104e79190612259565b60405180910390fd5b600061050483836104ff610c79565b610c93565b90508373ffffffffffffffffffffffffffffffffffffffff168173ffffffffffffffffffffffffffffffffffffffff161461057a578382826040517f64283d7b00000000000000000000000000000000000000000000000000000000815260040161057193929190612768565b60405180910390fd5b50505050565b61059b83838360405180602001604052806000815250610752565b505050565b60006105ab82610bb4565b9050919050565b60008073ffffffffffffffffffffffffffffffffffffffff168273ffffffffffffffffffffffffffffffffffffffff16036106255760006040517f89c62b6400000000000000000000000000000000000000000000000000000000815260040161061c9190612259565b60405180910390fd5b600360008373ffffffffffffffffffffffffffffffffffffffff1673ffffffffffffffffffffffffffffffffffffffff168152602001908152602001600020549050919050565b610674610ead565b61067e6000610f34565b565b6000600760009054906101000a900473ffffffffffffffffffffffffffffffffffffffff16905090565b6060600180546106b990612737565b80601f01602080910402602001604051908101604052809291908181526020018280546106e590612737565b80156107325780601f1061070757610100808354040283529160200191610732565b820191906000526020600020905b81548152906001019060200180831161071557829003601f168201915b5050505050905090565b61074e610747610c79565b8383610ffa565b5050565b61075d84848461047e565b610771610768610c79565b85858585611169565b50505050565b60606107828261131a565b9050919050565b6000808251116107ce576040517f08c379a00000000000000000000000000000000000000000000000000000000081526004016107c5906127eb565b60405180910390fd5b6000600860008154809291906107e39061283a565b9190505590506107f3338261142d565b6040518060400160405280848152602001428152506009600083815260200190815260200160002060008201518160000190816108309190612a2e565b506020820151816001015590505060006108498261144b565b90506108558282611586565b813373ffffffffffffffffffffffffffffffffffffffff167fffaa1b1372ce3d84c37f2f6c581e679dfd2d3326a2cb8633428a4b8990fec00e864260405161089e929190612698565b60405180910390a38192505050919050565b606060003073ffffffffffffffffffffffffffffffffffffffff16636352211e846040518263ffffffff1660e01b81526004016108ed919061236f565b602060405180830381865afa92505050801561092757506040513d601f19601f820116820180604052508101906109249190612b15565b60015b610966576040517f08c379a000000000000000000000000000000000000000000000000000000000815260040161095d90612b8e565b60405180910390fd5b60006009600086815260200190815260200160002060405180604001604052908160008201805461099690612737565b80601f01602080910402602001604051908101604052809291908181526020018280546109c290612737565b8015610a0f5780601f106109e457610100808354040283529160200191610a0f565b820191906000526020600020905b8154815290600101906020018083116109f257829003601f168201915b50505050508152602001600182015481525050905080600001518160200151935093505050915091565b6000600560008473ffffffffffffffffffffffffffffffffffffffff1673ffffffffffffffffffffffffffffffffffffffff16815260200190815260200160002060008373ffffffffffffffffffffffffffffffffffffffff1673ffffffffffffffffffffffffffffffffffffffff16815260200190815260200160002060009054906101000a900460ff16905092915050565b610ad5610ead565b600073ffffffffffffffffffffffffffffffffffffffff168173ffffffffffffffffffffffffffffffffffffffff1603610b475760006040517f1e4fbdf7000000000000000000000000000000000000000000000000000000008152600401610b3e9190612259565b60405180910390fd5b610b5081610f34565b50565b6000634906490660e01b7bffffffffffffffffffffffffffffffffffffffffffffffffffffffff1916827bffffffffffffffffffffffffffffffffffffffffffffffffffffffff19161480610bad5750610bac826115e2565b5b9050919050565b600080610bc0836116c4565b9050600073ffffffffffffffffffffffffffffffffffffffff168173ffffffffffffffffffffffffffffffffffffffff1603610c3357826040517f7e273289000000000000000000000000000000000000000000000000000000008152600401610c2a919061236f565b60405180910390fd5b80915050919050565b60006004600083815260200190815260200160002060009054906101000a900473ffffffffffffffffffffffffffffffffffffffff169050919050565b600033905090565b610c8e8383836001611701565b505050565b600080610c9f846116c4565b9050600073ffffffffffffffffffffffffffffffffffffffff168373ffffffffffffffffffffffffffffffffffffffff1614610ce157610ce08184866118c6565b5b600073ffffffffffffffffffffffffffffffffffffffff168173ffffffffffffffffffffffffffffffffffffffff1614610d7257610d23600085600080611701565b6001600360008373ffffffffffffffffffffffffffffffffffffffff1673ffffffffffffffffffffffffffffffffffffffff168152602001908152602001600020600082825403925050819055505b600073ffffffffffffffffffffffffffffffffffffffff168573ffffffffffffffffffffffffffffffffffffffff1614610df5576001600360008773ffffffffffffffffffffffffffffffffffffffff1673ffffffffffffffffffffffffffffffffffffffff168152602001908152602001600020600082825401925050819055505b846002600086815260200190815260200160002060006101000a81548173ffffffffffffffffffffffffffffffffffffffff021916908373ffffffffffffffffffffffffffffffffffffffff160217905550838573ffffffffffffffffffffffffffffffffffffffff168273ffffffffffffffffffffffffffffffffffffffff167fddf252ad1be2c89b69c2b068fc378daa952ba7f163c4a11628f55a4df523b3ef60405160405180910390a4809150509392505050565b610eb5610c79565b73ffffffffffffffffffffffffffffffffffffffff16610ed3610680565b73ffffffffffffffffffffffffffffffffffffffff1614610f3257610ef6610c79565b6040517f118cdaa7000000000000000000000000000000000000000000000000000000008152600401610f299190612259565b60405180910390fd5b565b6000600760009054906101000a900473ffffffffffffffffffffffffffffffffffffffff16905081600760006101000a81548173ffffffffffffffffffffffffffffffffffffffff021916908373ffffffffffffffffffffffffffffffffffffffff1602179055508173ffffffffffffffffffffffffffffffffffffffff168173ffffffffffffffffffffffffffffffffffffffff167f8be0079c531659141344cd1fd0a4f28419497f9722a3daafe3b4186f6b6457e060405160405180910390a35050565b600073ffffffffffffffffffffffffffffffffffffffff168273ffffffffffffffffffffffffffffffffffffffff160361106b57816040517f5b08ba180000000000000000000000000000000000000000000000000000000081526004016110629190612259565b60405180910390fd5b80600560008573ffffffffffffffffffffffffffffffffffffffff1673ffffffffffffffffffffffffffffffffffffffff16815260200190815260200160002060008473ffffffffffffffffffffffffffffffffffffffff1673ffffffffffffffffffffffffffffffffffffffff16815260200190815260200160002060006101000a81548160ff0219169083151502179055508173ffffffffffffffffffffffffffffffffffffffff168373ffffffffffffffffffffffffffffffffffffffff167f17307eab39ab6107e8899845ad3d59bd9653f200f220920489ca2b5937696c318360405161115c91906120e8565b60405180910390a3505050565b60008373ffffffffffffffffffffffffffffffffffffffff163b1115611313578273ffffffffffffffffffffffffffffffffffffffff1663150b7a02868685856040518563ffffffff1660e01b81526004016111c89493929190612c03565b6020604051808303816000875af192505050801561120457506040513d601f19601f820116820180604052508101906112019190612c64565b60015b611288573d8060008114611234576040519150601f19603f3d011682016040523d82523d6000602084013e611239565b606091505b50600081510361128057836040517f64a0ae920000000000000000000000000000000000000000000000000000000081526004016112779190612259565b60405180910390fd5b805181602001fd5b63150b7a0260e01b7bffffffffffffffffffffffffffffffffffffffffffffffffffffffff1916817bffffffffffffffffffffffffffffffffffffffffffffffffffffffff19161461131157836040517f64a0ae920000000000000000000000000000000000000000000000000000000081526004016113089190612259565b60405180910390fd5b505b5050505050565b606061132582610bb4565b50600060066000848152602001908152602001600020805461134690612737565b80601f016020809104026020016040519081016040528092919081815260200182805461137290612737565b80156113bf5780601f10611394576101008083540402835291602001916113bf565b820191906000526020600020905b8154815290600101906020018083116113a257829003601f168201915b5050505050905060006113d061198a565b905060008151036113e5578192505050611428565b60008251111561141a578082604051602001611402929190612ccd565b60405160208183030381529060405292505050611428565b611423846119a1565b925050505b919050565b611447828260405180602001604052806000815250611a0a565b5050565b606060006009600084815260200190815260200160002060405180604001604052908160008201805461147d90612737565b80601f01602080910402602001604051908101604052809291908181526020018280546114a990612737565b80156114f65780601f106114cb576101008083540402835291602001916114f6565b820191906000526020600020905b8154815290600101906020018083116114d957829003601f168201915b505050505081526020016001820154815250509050600061151684611a2e565b82600001516115288460200151611a2e565b61153187611a2e565b6040516020016115449493929190613165565b604051602081830303815290604052905061155e81611afc565b60405160200161156e919061327e565b60405160208183030381529060405292505050919050565b806006600084815260200190815260200160002090816115a69190612a2e565b507ff8e1a15aba9398e019f0b49df1a4fde98ee17ae345cb5f6b5e2c27f5033e8ce7826040516115d6919061236f565b60405180910390a15050565b60007f80ac58cd000000000000000000000000000000000000000000000000000000007bffffffffffffffffffffffffffffffffffffffffffffffffffffffff1916827bffffffffffffffffffffffffffffffffffffffffffffffffffffffff191614806116ad57507f5b5e139f000000000000000000000000000000000000000000000000000000007bffffffffffffffffffffffffffffffffffffffffffffffffffffffff1916827bffffffffffffffffffffffffffffffffffffffffffffffffffffffff1916145b806116bd57506116bc82611b29565b5b9050919050565b60006002600083815260200190815260200160002060009054906101000a900473ffffffffffffffffffffffffffffffffffffffff169050919050565b808061173a5750600073ffffffffffffffffffffffffffffffffffffffff168273ffffffffffffffffffffffffffffffffffffffff1614155b1561186e57600061174a84610bb4565b9050600073ffffffffffffffffffffffffffffffffffffffff168373ffffffffffffffffffffffffffffffffffffffff16141580156117b557508273ffffffffffffffffffffffffffffffffffffffff168173ffffffffffffffffffffffffffffffffffffffff1614155b80156117c857506117c68184610a39565b155b1561180a57826040517fa9fbf51f0000000000000000000000000000000000000000000000000000000081526004016118019190612259565b60405180910390fd5b811561186c57838573ffffffffffffffffffffffffffffffffffffffff168273ffffffffffffffffffffffffffffffffffffffff167f8c5be1e5ebec7d5bd14f71427d1e84f3dd0314c0f7b2291e5b200ac8c7c3b92560405160405180910390a45b505b836004600085815260200190815260200160002060006101000a81548173ffffffffffffffffffffffffffffffffffffffff021916908373ffffffffffffffffffffffffffffffffffffffff16021790555050505050565b6118d1838383611b93565b61198557600073ffffffffffffffffffffffffffffffffffffffff168373ffffffffffffffffffffffffffffffffffffffff160361194657806040517f7e27328900000000000000000000000000000000000000000000000000000000815260040161193d919061236f565b60405180910390fd5b81816040517f177e802f00000000000000000000000000000000000000000000000000000000815260040161197c9291906132a0565b60405180910390fd5b505050565b606060405180602001604052806000815250905090565b60606119ac82610bb4565b5060006119b761198a565b905060008151116119d75760405180602001604052806000815250611a02565b806119e184611a2e565b6040516020016119f2929190612ccd565b6040516020818303038152906040525b915050919050565b611a148383611c54565b611a29611a1f610c79565b6000858585611169565b505050565b606060006001611a3d84611d4d565b01905060008167ffffffffffffffff811115611a5c57611a5b612400565b5b6040519080825280601f01601f191660200182016040528015611a8e5781602001600182028036833780820191505090505b509050600082602001820190505b600115611af1578080600190039150507f3031323334353637383961626364656600000000000000000000000000000000600a86061a8153600a8581611ae557611ae46132c9565b5b04945060008503611a9c575b819350505050919050565b6060611b22826040518060600160405280604081526020016133a0604091396001611ea0565b9050919050565b60007f01ffc9a7000000000000000000000000000000000000000000000000000000007bffffffffffffffffffffffffffffffffffffffffffffffffffffffff1916827bffffffffffffffffffffffffffffffffffffffffffffffffffffffff1916149050919050565b60008073ffffffffffffffffffffffffffffffffffffffff168373ffffffffffffffffffffffffffffffffffffffff1614158015611c4b57508273ffffffffffffffffffffffffffffffffffffffff168473ffffffffffffffffffffffffffffffffffffffff161480611c0c5750611c0b8484610a39565b5b80611c4a57508273ffffffffffffffffffffffffffffffffffffffff16611c3283610c3c565b73ffffffffffffffffffffffffffffffffffffffff16145b5b90509392505050565b600073ffffffffffffffffffffffffffffffffffffffff168273ffffffffffffffffffffffffffffffffffffffff1603611cc65760006040517f64a0ae92000000000000000000000000000000000000000000000000000000008152600401611cbd9190612259565b60405180910390fd5b6000611cd483836000610c93565b9050600073ffffffffffffffffffffffffffffffffffffffff168173ffffffffffffffffffffffffffffffffffffffff1614611d485760006040517f73c6ac6e000000000000000000000000000000000000000000000000000000008152600401611d3f9190612259565b60405180910390fd5b505050565b600080600090507a184f03e93ff9f4daa797ed6e38ed64bf6a1f0100000000000000008310611dab577a184f03e93ff9f4daa797ed6e38ed64bf6a1f0100000000000000008381611da157611da06132c9565b5b0492506040810190505b6d04ee2d6d415b85acef81000000008310611de8576d04ee2d6d415b85acef81000000008381611dde57611ddd6132c9565b5b0492506020810190505b662386f26fc100008310611e1757662386f26fc100008381611e0d57611e0c6132c9565b5b0492506010810190505b6305f5e1008310611e40576305f5e1008381611e3657611e356132c9565b5b0492506008810190505b6127108310611e65576127108381611e5b57611e5a6132c9565b5b0492506004810190505b60648310611e885760648381611e7e57611e7d6132c9565b5b0492506002810190505b600a8310611e97576001810190505b80915050919050565b60606000845103611ec25760405180602001604052806000815250905061202d565b600082611ef4576003600286516004611edb91906132f8565b611ee5919061333a565b611eef919061336e565b611f1b565b600360028651611f04919061333a565b611f0e919061336e565b6004611f1a91906132f8565b5b905060008167ffffffffffffffff811115611f3957611f38612400565b5b6040519080825280601f01601f191660200182016040528015611f6b5781602001600182028036833780820191505090505b50905060018501602082018788518901602081018051600082525b82841015611fe1576003840193508351603f8160121c168701518653600186019550603f81600c1c168701518653600186019550603f8160061c168701518653600186019550603f8116870151865360018601955050611f86565b80825289156120215760038c51066001811461200457600281146120175761201f565b603d6001870353603d600287035361201f565b603d60018703535b505b50505050505080925050505b9392505050565b6000604051905090565b600080fd5b600080fd5b60007fffffffff0000000000000000000000000000000000000000000000000000000082169050919050565b61207d81612048565b811461208857600080fd5b50565b60008135905061209a81612074565b92915050565b6000602082840312156120b6576120b561203e565b5b60006120c48482850161208b565b91505092915050565b60008115159050919050565b6120e2816120cd565b82525050565b60006020820190506120fd60008301846120d9565b92915050565b600081519050919050565b600082825260208201905092915050565b60005b8381101561213d578082015181840152602081019050612122565b60008484015250505050565b6000601f19601f8301169050919050565b600061216582612103565b61216f818561210e565b935061217f81856020860161211f565b61218881612149565b840191505092915050565b600060208201905081810360008301526121ad818461215a565b905092915050565b6000819050919050565b6121c8816121b5565b81146121d357600080fd5b50565b6000813590506121e5816121bf565b92915050565b6000602082840312156122015761220061203e565b5b600061220f848285016121d6565b91505092915050565b600073ffffffffffffffffffffffffffffffffffffffff82169050919050565b600061224382612218565b9050919050565b61225381612238565b82525050565b600060208201905061226e600083018461224a565b92915050565b61227d81612238565b811461228857600080fd5b50565b60008135905061229a81612274565b92915050565b600080604083850312156122b7576122b661203e565b5b60006122c58582860161228b565b92505060206122d6858286016121d6565b9150509250929050565b6000806000606084860312156122f9576122f861203e565b5b60006123078682870161228b565b93505060206123188682870161228b565b9250506040612329868287016121d6565b9150509250925092565b6000602082840312156123495761234861203e565b5b60006123578482850161228b565b91505092915050565b612369816121b5565b82525050565b60006020820190506123846000830184612360565b92915050565b612393816120cd565b811461239e57600080fd5b50565b6000813590506123b08161238a565b92915050565b600080604083850312156123cd576123cc61203e565b5b60006123db8582860161228b565b92505060206123ec858286016123a1565b9150509250929050565b600080fd5b600080fd5b7f4e487b7100000000000000000000000000000000000000000000000000000000600052604160045260246000fd5b61243882612149565b810181811067ffffffffffffffff8211171561245757612456612400565b5b80604052505050565b600061246a612034565b9050612476828261242f565b919050565b600067ffffffffffffffff82111561249657612495612400565b5b61249f82612149565b9050602081019050919050565b82818337600083830152505050565b60006124ce6124c98461247b565b612460565b9050828152602081018484840111156124ea576124e96123fb565b5b6124f58482856124ac565b509392505050565b600082601f830112612512576125116123f6565b5b81356125228482602086016124bb565b91505092915050565b600080600080608085870312156125455761254461203e565b5b60006125538782880161228b565b94505060206125648782880161228b565b9350506040612575878288016121d6565b925050606085013567ffffffffffffffff81111561259657612595612043565b5b6125a2878288016124fd565b91505092959194509250565b600067ffffffffffffffff8211156125c9576125c8612400565b5b6125d282612149565b9050602081019050919050565b60006125f26125ed846125ae565b612460565b90508281526020810184848401111561260e5761260d6123fb565b5b6126198482856124ac565b509392505050565b600082601f830112612636576126356123f6565b5b81356126468482602086016125df565b91505092915050565b6000602082840312156126655761266461203e565b5b600082013567ffffffffffffffff81111561268357612682612043565b5b61268f84828501612621565b91505092915050565b600060408201905081810360008301526126b2818561215a565b90506126c16020830184612360565b9392505050565b600080604083850312156126df576126de61203e565b5b60006126ed8582860161228b565b92505060206126fe8582860161228b565b9150509250929050565b7f4e487b7100000000000000000000000000000000000000000000000000000000600052602260045260246000fd5b6000600282049050600182168061274f57607f821691505b60208210810361276257612761612708565b5b50919050565b600060608201905061277d600083018661224a565b61278a6020830185612360565b612797604083018461224a565b949350505050565b7f526563697069656e74206e616d652063616e6e6f7420626520656d7074790000600082015250565b60006127d5601e8361210e565b91506127e08261279f565b602082019050919050565b60006020820190508181036000830152612804816127c8565b9050919050565b7f4e487b7100000000000000000000000000000000000000000000000000000000600052601160045260246000fd5b6000612845826121b5565b91507fffffffffffffffffffffffffffffffffffffffffffffffffffffffffffffffff82036128775761287661280b565b5b600182019050919050565b60008190508160005260206000209050919050565b60006020601f8301049050919050565b600082821b905092915050565b6000600883026128e47fffffffffffffffffffffffffffffffffffffffffffffffffffffffffffffffff826128a7565b6128ee86836128a7565b95508019841693508086168417925050509392505050565b6000819050919050565b600061292b612926612921846121b5565b612906565b6121b5565b9050919050565b6000819050919050565b61294583612910565b61295961295182612932565b8484546128b4565b825550505050565b600090565b61296e612961565b61297981848461293c565b505050565b5b8181101561299d57612992600082612966565b60018101905061297f565b5050565b601f8211156129e2576129b381612882565b6129bc84612897565b810160208510156129cb578190505b6129df6129d785612897565b83018261297e565b50505b505050565b600082821c905092915050565b6000612a05600019846008026129e7565b1980831691505092915050565b6000612a1e83836129f4565b9150826002028217905092915050565b612a3782612103565b67ffffffffffffffff811115612a5057612a4f612400565b5b612a5a8254612737565b612a658282856129a1565b600060209050601f831160018114612a985760008415612a86578287015190505b612a908582612a12565b865550612af8565b601f198416612aa686612882565b60005b82811015612ace57848901518255600182019150602085019450602081019050612aa9565b86831015612aeb5784890151612ae7601f8916826129f4565b8355505b6001600288020188555050505b505050505050565b600081519050612b0f81612274565b92915050565b600060208284031215612b2b57612b2a61203e565b5b6000612b3984828501612b00565b91505092915050565b7f436572746966696361746520646f6573206e6f74206578697374000000000000600082015250565b6000612b78601a8361210e565b9150612b8382612b42565b602082019050919050565b60006020820190508181036000830152612ba781612b6b565b9050919050565b600081519050919050565b600082825260208201905092915050565b6000612bd582612bae565b612bdf8185612bb9565b9350612bef81856020860161211f565b612bf881612149565b840191505092915050565b6000608082019050612c18600083018761224a565b612c25602083018661224a565b612c326040830185612360565b8181036060830152612c448184612bca565b905095945050505050565b600081519050612c5e81612074565b92915050565b600060208284031215612c7a57612c7961203e565b5b6000612c8884828501612c4f565b91505092915050565b600081905092915050565b6000612ca782612103565b612cb18185612c91565b9350612cc181856020860161211f565b80840191505092915050565b6000612cd98285612c9c565b9150612ce58284612c9c565b91508190509392505050565b7f7b00000000000000000000000000000000000000000000000000000000000000600082015250565b6000612d27600183612c91565b9150612d3282612cf1565b600182019050919050565b7f226e616d65223a2022416368696576656d656e7420436572746966696361746560008201527f2023000000000000000000000000000000000000000000000000000000000000602082015250565b6000612d99602283612c91565b9150612da482612d3d565b602282019050919050565b7f222c000000000000000000000000000000000000000000000000000000000000600082015250565b6000612de5600283612c91565b9150612df082612daf565b600282019050919050565b7f226465736372697074696f6e223a2022416e204e46542063657274696669636160008201527f7465206f6620616368696576656d656e74206f6e20746865204574686572657560208201527f6d20626c6f636b636861696e222c000000000000000000000000000000000000604082015250565b6000612e7d604e83612c91565b9150612e8882612dfb565b604e82019050919050565b7f2261747472696275746573223a205b0000000000000000000000000000000000600082015250565b6000612ec9600f83612c91565b9150612ed482612e93565b600f82019050919050565b7f7b2274726169745f74797065223a2022526563697069656e74222c202276616c60008201527f7565223a20220000000000000000000000000000000000000000000000000000602082015250565b6000612f3b602683612c91565b9150612f4682612edf565b602682019050919050565b7f227d2c0000000000000000000000000000000000000000000000000000000000600082015250565b6000612f87600383612c91565b9150612f9282612f51565b600382019050919050565b7f7b2274726169745f74797065223a202254696d657374616d70222c202276616c60008201527f7565223a20220000000000000000000000000000000000000000000000000000602082015250565b6000612ff9602683612c91565b915061300482612f9d565b602682019050919050565b7f7b2274726169745f74797065223a2022546f6b656e204944222c202276616c7560008201527f65223a2022000000000000000000000000000000000000000000000000000000602082015250565b600061306b602583612c91565b91506130768261300f565b602582019050919050565b7f227d000000000000000000000000000000000000000000000000000000000000600082015250565b60006130b7600283612c91565b91506130c282613081565b600282019050919050565b7f5d00000000000000000000000000000000000000000000000000000000000000600082015250565b6000613103600183612c91565b915061310e826130cd565b600182019050919050565b7f7d00000000000000000000000000000000000000000000000000000000000000600082015250565b600061314f600183612c91565b915061315a82613119565b600182019050919050565b600061317082612d1a565b915061317b82612d8c565b91506131878287612c9c565b915061319282612dd8565b915061319d82612e70565b91506131a882612ebc565b91506131b382612f2e565b91506131bf8286612c9c565b91506131ca82612f7a565b91506131d582612fec565b91506131e18285612c9c565b91506131ec82612f7a565b91506131f78261305e565b91506132038284612c9c565b915061320e826130aa565b9150613219826130f6565b915061322482613142565b915081905095945050505050565b7f646174613a6170706c69636174696f6e2f6a736f6e3b6261736536342c000000600082015250565b6000613268601d83612c91565b915061327382613232565b601d82019050919050565b60006132898261325b565b91506132958284612c9c565b915081905092915050565b60006040820190506132b5600083018561224a565b6132c26020830184612360565b9392505050565b7f4e487b7100000000000000000000000000000000000000000000000000000000600052601260045260246000fd5b6000613303826121b5565b915061330e836121b5565b925082820261331c816121b5565b915082820484148315176133335761333261280b565b5b5092915050565b6000613345826121b5565b9150613350836121b5565b92508282019050808211156133685761336761280b565b5b92915050565b6000613379826121b5565b9150613384836121b5565b925082613394576133936132c9565b5b82820490509291505056fe4142434445464748494a4b4c4d4e4f505152535455565758595a6162636465666768696a6b6c6d6e6f707172737475767778797a303132333435363738392b2fa2646970667358221220c76f95675061cc837ae3e76b2024f1c0c5d63d0f42f32d5e7b030cea9a64a09a64736f6c63430008140033",
  "linkReferences": {},
  "deployedLinkReferences": {}
}